{
  "contractName": "CryptoSoccrToken",
  "abi": [
    {
      "constant": true,
      "inputs": [],
      "name": "promoCreatedCount",
      "outputs": [
        {
          "name": "",
          "type": "uint256"
        }
      ],
      "payable": false,
      "stateMutability": "view",
      "type": "function"
    },
    {
      "constant": true,
      "inputs": [],
      "name": "ceoAddress",
      "outputs": [
        {
          "name": "",
          "type": "address"
        }
      ],
      "payable": false,
      "stateMutability": "view",
      "type": "function"
    },
    {
      "constant": true,
      "inputs": [],
      "name": "NAME",
      "outputs": [
        {
          "name": "",
          "type": "string"
        }
      ],
      "payable": false,
      "stateMutability": "view",
      "type": "function"
    },
    {
      "constant": true,
      "inputs": [
        {
          "name": "",
          "type": "uint256"
        }
      ],
      "name": "playerIndexToApproved",
      "outputs": [
        {
          "name": "",
          "type": "address"
        }
      ],
      "payable": false,
      "stateMutability": "view",
      "type": "function"
    },
    {
      "constant": true,
      "inputs": [
        {
          "name": "",
          "type": "uint256"
        }
      ],
      "name": "playerIndexToOwner",
      "outputs": [
        {
          "name": "",
          "type": "address"
        }
      ],
      "payable": false,
      "stateMutability": "view",
      "type": "function"
    },
    {
      "constant": true,
      "inputs": [],
      "name": "SYMBOL",
      "outputs": [
        {
          "name": "",
          "type": "string"
        }
      ],
      "payable": false,
      "stateMutability": "view",
      "type": "function"
    },
    {
      "inputs": [],
      "payable": false,
      "stateMutability": "nonpayable",
      "type": "constructor"
    },
    {
      "anonymous": false,
      "inputs": [
        {
          "indexed": false,
          "name": "tokenId",
          "type": "uint256"
        },
        {
          "indexed": false,
          "name": "name",
          "type": "string"
        },
        {
          "indexed": false,
          "name": "owner",
          "type": "address"
        }
      ],
      "name": "Birth",
      "type": "event"
    },
    {
      "anonymous": false,
      "inputs": [
        {
          "indexed": false,
          "name": "tokenId",
          "type": "uint256"
        },
        {
          "indexed": false,
          "name": "oldOwner",
          "type": "address"
        },
        {
          "indexed": false,
          "name": "newOwner",
          "type": "address"
        }
      ],
      "name": "Snatch",
      "type": "event"
    },
    {
      "anonymous": false,
      "inputs": [
        {
          "indexed": true,
          "name": "tokenId",
          "type": "uint256"
        },
        {
          "indexed": false,
          "name": "oldPrice",
          "type": "uint256"
        },
        {
          "indexed": false,
          "name": "newPrice",
          "type": "uint256"
        },
        {
          "indexed": false,
          "name": "prevOwner",
          "type": "address"
        },
        {
          "indexed": true,
          "name": "winner",
          "type": "address"
        },
        {
          "indexed": false,
          "name": "name",
          "type": "string"
        }
      ],
      "name": "TokenSold",
      "type": "event"
    },
    {
      "anonymous": false,
      "inputs": [
        {
          "indexed": false,
          "name": "from",
          "type": "address"
        },
        {
          "indexed": false,
          "name": "to",
          "type": "address"
        },
        {
          "indexed": false,
          "name": "tokenId",
          "type": "uint256"
        }
      ],
      "name": "Transfer",
      "type": "event"
    },
    {
      "anonymous": false,
      "inputs": [
        {
          "indexed": true,
          "name": "owner",
          "type": "address"
        },
        {
          "indexed": true,
          "name": "approved",
          "type": "address"
        },
        {
          "indexed": false,
          "name": "tokenId",
          "type": "uint256"
        }
      ],
      "name": "Approval",
      "type": "event"
    },
    {
      "constant": false,
      "inputs": [
        {
          "name": "_to",
          "type": "address"
        },
        {
          "name": "_tokenId",
          "type": "uint256"
        }
      ],
      "name": "approve",
      "outputs": [],
      "payable": false,
      "stateMutability": "nonpayable",
      "type": "function"
    },
    {
      "constant": true,
      "inputs": [
        {
          "name": "_owner",
          "type": "address"
        }
      ],
      "name": "balanceOf",
      "outputs": [
        {
          "name": "balance",
          "type": "uint256"
        }
      ],
      "payable": false,
      "stateMutability": "view",
      "type": "function"
    },
    {
      "constant": false,
      "inputs": [
        {
          "name": "_owner",
          "type": "address"
        },
        {
          "name": "_name",
          "type": "string"
        },
        {
          "name": "_price",
          "type": "uint256"
        },
        {
          "name": "_internalPlayerId",
          "type": "uint256"
        }
      ],
      "name": "createPromoPlayer",
      "outputs": [],
      "payable": false,
      "stateMutability": "nonpayable",
      "type": "function"
    },
    {
      "constant": false,
      "inputs": [
        {
          "name": "_name",
          "type": "string"
        },
        {
          "name": "_internalPlayerId",
          "type": "uint256"
        }
      ],
      "name": "createContractPlayer",
      "outputs": [],
      "payable": false,
      "stateMutability": "nonpayable",
      "type": "function"
    },
    {
      "constant": true,
      "inputs": [
        {
          "name": "_tokenId",
          "type": "uint256"
        }
      ],
      "name": "getPlayer",
      "outputs": [
        {
          "name": "playerName",
          "type": "string"
        },
        {
          "name": "internalPlayerId",
          "type": "uint256"
        },
        {
          "name": "sellingPrice",
          "type": "uint256"
        },
        {
          "name": "owner",
          "type": "address"
        }
      ],
      "payable": false,
      "stateMutability": "view",
      "type": "function"
    },
    {
      "constant": true,
      "inputs": [],
      "name": "implementsERC721",
      "outputs": [
        {
          "name": "",
          "type": "bool"
        }
      ],
      "payable": false,
      "stateMutability": "pure",
      "type": "function"
    },
    {
      "constant": true,
      "inputs": [],
      "name": "name",
      "outputs": [
        {
          "name": "",
          "type": "string"
        }
      ],
      "payable": false,
      "stateMutability": "pure",
      "type": "function"
    },
    {
      "constant": true,
      "inputs": [
        {
          "name": "_tokenId",
          "type": "uint256"
        }
      ],
      "name": "ownerOf",
      "outputs": [
        {
          "name": "owner",
          "type": "address"
        }
      ],
      "payable": false,
      "stateMutability": "view",
      "type": "function"
    },
    {
      "constant": false,
      "inputs": [
        {
          "name": "_to",
          "type": "address"
        }
      ],
      "name": "payout",
      "outputs": [],
      "payable": false,
      "stateMutability": "nonpayable",
      "type": "function"
    },
    {
      "constant": false,
      "inputs": [
        {
          "name": "_tokenId",
          "type": "uint256"
        }
      ],
      "name": "purchase",
      "outputs": [],
      "payable": true,
      "stateMutability": "payable",
      "type": "function"
    },
    {
      "constant": true,
      "inputs": [
        {
          "name": "_tokenId",
          "type": "uint256"
        }
      ],
      "name": "priceOf",
      "outputs": [
        {
          "name": "price",
          "type": "uint256"
        }
      ],
      "payable": false,
      "stateMutability": "view",
      "type": "function"
    },
    {
      "constant": false,
      "inputs": [
        {
          "name": "_newCEO",
          "type": "address"
        }
      ],
      "name": "setCEO",
      "outputs": [],
      "payable": false,
      "stateMutability": "nonpayable",
      "type": "function"
    },
    {
      "constant": true,
      "inputs": [],
      "name": "symbol",
      "outputs": [
        {
          "name": "",
          "type": "string"
        }
      ],
      "payable": false,
      "stateMutability": "pure",
      "type": "function"
    },
    {
      "constant": false,
      "inputs": [
        {
          "name": "_tokenId",
          "type": "uint256"
        }
      ],
      "name": "takeOwnership",
      "outputs": [],
      "payable": false,
      "stateMutability": "nonpayable",
      "type": "function"
    },
    {
      "constant": true,
      "inputs": [
        {
          "name": "_owner",
          "type": "address"
        }
      ],
      "name": "tokensOfOwner",
      "outputs": [
        {
          "name": "ownerTokens",
          "type": "uint256[]"
        }
      ],
      "payable": false,
      "stateMutability": "view",
      "type": "function"
    },
    {
      "constant": true,
      "inputs": [],
      "name": "totalSupply",
      "outputs": [
        {
          "name": "total",
          "type": "uint256"
        }
      ],
      "payable": false,
      "stateMutability": "view",
      "type": "function"
    },
    {
      "constant": false,
      "inputs": [
        {
          "name": "_to",
          "type": "address"
        },
        {
          "name": "_tokenId",
          "type": "uint256"
        }
      ],
      "name": "transfer",
      "outputs": [],
      "payable": false,
      "stateMutability": "nonpayable",
      "type": "function"
    },
    {
      "constant": false,
      "inputs": [
        {
          "name": "_from",
          "type": "address"
        },
        {
          "name": "_to",
          "type": "address"
        },
        {
          "name": "_tokenId",
          "type": "uint256"
        }
      ],
      "name": "transferFrom",
      "outputs": [],
      "payable": false,
      "stateMutability": "nonpayable",
      "type": "function"
    }
  ],
  "bytecode": "0x608060405266038d7ea4c6800060005566be78bd4c57d00060015560c86002556707d72165f25ed0006003556096600455607860055534801561004157600080fd5b5033600a60006101000a81548173ffffffffffffffffffffffffffffffffffffffff021916908373ffffffffffffffffffffffffffffffffffffffff160217905550611f61806100926000396000f30060806040526004361061013e576000357c0100000000000000000000000000000000000000000000000000000000900463ffffffff16806305e455461461014357806306fdde031461016e578063095ea7b3146101fe5780630a0f81681461024b5780630b7e9c44146102a25780630e934447146102e55780631051db341461038257806318160ddd146103b157806323b872dd146103dc57806327d7874c146104495780635fe736e91461048c5780636352211e146104ff57806370a082311461056c5780638462151c146105c357806395d89b411461065b578063a3f4df7e146106eb578063a9059cbb1461077b578063b2e6ceeb146107c8578063b9186d7d146107f5578063e55ae4e814610836578063e94e80fa1461091d578063efef39a11461098a578063f2d05f2b146109aa578063f76f8d7814610a17575b600080fd5b34801561014f57600080fd5b50610158610aa7565b6040518082815260200191505060405180910390f35b34801561017a57600080fd5b50610183610aad565b6040518080602001828103825283818151815260200191508051906020019080838360005b838110156101c35780820151818401526020810190506101a8565b50505050905090810190601f1680156101f05780820380516001836020036101000a031916815260200191505b509250505060405180910390f35b34801561020a57600080fd5b50610249600480360381019080803573ffffffffffffffffffffffffffffffffffffffff16906020019092919080359060200190929190505050610aea565b005b34801561025757600080fd5b50610260610bba565b604051808273ffffffffffffffffffffffffffffffffffffffff1673ffffffffffffffffffffffffffffffffffffffff16815260200191505060405180910390f35b3480156102ae57600080fd5b506102e3600480360381019080803573ffffffffffffffffffffffffffffffffffffffff169060200190929190505050610be0565b005b3480156102f157600080fd5b50610380600480360381019080803573ffffffffffffffffffffffffffffffffffffffff169060200190929190803590602001908201803590602001908080601f01602080910402602001604051908101604052809392919081815260200183838082843782019150505050505091929192908035906020019092919080359060200190929190505050610c48565b005b34801561038e57600080fd5b50610397610d4b565b604051808215151515815260200191505060405180910390f35b3480156103bd57600080fd5b506103c6610d54565b6040518082815260200191505060405180910390f35b3480156103e857600080fd5b50610447600480360381019080803573ffffffffffffffffffffffffffffffffffffffff169060200190929190803573ffffffffffffffffffffffffffffffffffffffff16906020019092919080359060200190929190505050610d61565b005b34801561045557600080fd5b5061048a600480360381019080803573ffffffffffffffffffffffffffffffffffffffff169060200190929190505050610daf565b005b34801561049857600080fd5b506104fd600480360381019080803590602001908201803590602001908080601f016020809104026020016040519081016040528093929190818152602001838380828437820191505050505050919291929080359060200190929190505050610e8b565b005b34801561050b57600080fd5b5061052a60048036038101908080359060200190929190505050610ef9565b604051808273ffffffffffffffffffffffffffffffffffffffff1673ffffffffffffffffffffffffffffffffffffffff16815260200191505060405180910390f35b34801561057857600080fd5b506105ad600480360381019080803573ffffffffffffffffffffffffffffffffffffffff169060200190929190505050610f72565b6040518082815260200191505060405180910390f35b3480156105cf57600080fd5b50610604600480360381019080803573ffffffffffffffffffffffffffffffffffffffff169060200190929190505050610fbb565b6040518080602001828103825283818151815260200191508051906020019060200280838360005b8381101561064757808201518184015260208101905061062c565b505050509050019250505060405180910390f35b34801561066757600080fd5b50610670611108565b6040518080602001828103825283818151815260200191508051906020019080838360005b838110156106b0578082015181840152602081019050610695565b50505050905090810190601f1680156106dd5780820380516001836020036101000a031916815260200191505b509250505060405180910390f35b3480156106f757600080fd5b50610700611145565b6040518080602001828103825283818151815260200191508051906020019080838360005b83811015610740578082015181840152602081019050610725565b50505050905090810190601f16801561076d5780820380516001836020036101000a031916815260200191505b509250505060405180910390f35b34801561078757600080fd5b506107c6600480360381019080803573ffffffffffffffffffffffffffffffffffffffff1690602001909291908035906020019092919050505061117e565b005b3480156107d457600080fd5b506107f3600480360381019080803590602001909291905050506111b6565b005b34801561080157600080fd5b506108206004803603810190808035906020019092919050505061122b565b6040518082815260200191505060405180910390f35b34801561084257600080fd5b5061086160048036038101908080359060200190929190505050611248565b60405180806020018581526020018481526020018373ffffffffffffffffffffffffffffffffffffffff1673ffffffffffffffffffffffffffffffffffffffff168152602001828103825286818151815260200191508051906020019080838360005b838110156108df5780820151818401526020810190506108c4565b50505050905090810190601f16801561090c5780820380516001836020036101000a031916815260200191505b509550505050505060405180910390f35b34801561092957600080fd5b5061094860048036038101908080359060200190929190505050611369565b604051808273ffffffffffffffffffffffffffffffffffffffff1673ffffffffffffffffffffffffffffffffffffffff16815260200191505060405180910390f35b6109a86004803603810190808035906020019092919050505061139c565b005b3480156109b657600080fd5b506109d5600480360381019080803590602001909291905050506117d7565b604051808273ffffffffffffffffffffffffffffffffffffffff1673ffffffffffffffffffffffffffffffffffffffff16815260200191505060405180910390f35b348015610a2357600080fd5b50610a2c61180a565b6040518080602001828103825283818151815260200191508051906020019080838360005b83811015610a6c578082015181840152602081019050610a51565b50505050905090810190601f168015610a995780820380516001836020036101000a031916815260200191505b509250505060405180910390f35b600b5481565b60606040805190810160405280600b81526020017f43727970746f536f636372000000000000000000000000000000000000000000815250905090565b610af43382611843565b1515610aff57600080fd5b816008600083815260200190815260200160002060006101000a81548173ffffffffffffffffffffffffffffffffffffffff021916908373ffffffffffffffffffffffffffffffffffffffff1602179055508173ffffffffffffffffffffffffffffffffffffffff163373ffffffffffffffffffffffffffffffffffffffff167f8c5be1e5ebec7d5bd14f71427d1e84f3dd0314c0f7b2291e5b200ac8c7c3b925836040518082815260200191505060405180910390a35050565b600a60009054906101000a900473ffffffffffffffffffffffffffffffffffffffff1681565b600a60009054906101000a900473ffffffffffffffffffffffffffffffffffffffff1673ffffffffffffffffffffffffffffffffffffffff163373ffffffffffffffffffffffffffffffffffffffff16141515610c3c57600080fd5b610c45816118af565b50565b6000600a60009054906101000a900473ffffffffffffffffffffffffffffffffffffffff1673ffffffffffffffffffffffffffffffffffffffff163373ffffffffffffffffffffffffffffffffffffffff16141515610ca657600080fd5b611388600b54101515610cb857600080fd5b849050600073ffffffffffffffffffffffffffffffffffffffff168173ffffffffffffffffffffffffffffffffffffffff161415610d1657600a60009054906101000a900473ffffffffffffffffffffffffffffffffffffffff1690505b600083111515610d265760005492505b600b60008154809291906001019190505550610d44848285856119cb565b5050505050565b60006001905090565b6000600c80549050905090565b610d6b8382611843565b1515610d7657600080fd5b610d808282611b60565b1515610d8b57600080fd5b610d9482611bcc565b1515610d9f57600080fd5b610daa838383611c05565b505050565b600a60009054906101000a900473ffffffffffffffffffffffffffffffffffffffff1673ffffffffffffffffffffffffffffffffffffffff163373ffffffffffffffffffffffffffffffffffffffff16141515610e0b57600080fd5b600073ffffffffffffffffffffffffffffffffffffffff168173ffffffffffffffffffffffffffffffffffffffff1614151515610e4757600080fd5b80600a60006101000a81548173ffffffffffffffffffffffffffffffffffffffff021916908373ffffffffffffffffffffffffffffffffffffffff16021790555050565b600a60009054906101000a900473ffffffffffffffffffffffffffffffffffffffff1673ffffffffffffffffffffffffffffffffffffffff163373ffffffffffffffffffffffffffffffffffffffff16141515610ee757600080fd5b610ef58230600054846119cb565b5050565b60006006600083815260200190815260200160002060009054906101000a900473ffffffffffffffffffffffffffffffffffffffff169050600073ffffffffffffffffffffffffffffffffffffffff168173ffffffffffffffffffffffffffffffffffffffff1614151515610f6d57600080fd5b919050565b6000600760008373ffffffffffffffffffffffffffffffffffffffff1673ffffffffffffffffffffffffffffffffffffffff168152602001908152602001600020549050919050565b6060600060606000806000610fcf87610f72565b9450600085141561101257600060405190808252806020026020018201604052801561100a5781602001602082028038833980820191505090505b5095506110fe565b846040519080825280602002602001820160405280156110415781602001602082028038833980820191505090505b50935061104c610d54565b925060009150600090505b82811115156110fa578673ffffffffffffffffffffffffffffffffffffffff166006600083815260200190815260200160002060009054906101000a900473ffffffffffffffffffffffffffffffffffffffff1673ffffffffffffffffffffffffffffffffffffffff1614156110ed578084838151811015156110d657fe5b906020019060200201818152505081806001019250505b8080600101915050611057565b8395505b5050505050919050565b60606040805190810160405280601081526020017f43727970746f536f636372546f6b656e00000000000000000000000000000000815250905090565b6040805190810160405280600b81526020017f43727970746f536f63637200000000000000000000000000000000000000000081525081565b6111883382611843565b151561119357600080fd5b61119c82611bcc565b15156111a757600080fd5b6111b2338383611c05565b5050565b6000803391506006600084815260200190815260200160002060009054906101000a900473ffffffffffffffffffffffffffffffffffffffff1690506111fb82611bcc565b151561120657600080fd5b6112108284611b60565b151561121b57600080fd5b611226818385611c05565b505050565b600060096000838152602001908152602001600020549050919050565b6060600080600080600c8681548110151561125f57fe5b90600052602060002090600202019050806000018054600181600116156101000203166002900480601f0160208091040260200160405190810160405280929190818152602001828054600181600116156101000203166002900480156113075780601f106112dc57610100808354040283529160200191611307565b820191906000526020600020905b8154815290600101906020018083116112ea57829003601f168201915b5050505050945080600101549350600960008781526020019081526020016000205492506006600087815260200190815260200160002060009054906101000a900473ffffffffffffffffffffffffffffffffffffffff169150509193509193565b60086020528060005260406000206000915054906101000a900473ffffffffffffffffffffffffffffffffffffffff1681565b60008060008060006006600087815260200190815260200160002060009054906101000a900473ffffffffffffffffffffffffffffffffffffffff169450339350600960008781526020019081526020016000205492508373ffffffffffffffffffffffffffffffffffffffff168573ffffffffffffffffffffffffffffffffffffffff161415151561142e57600080fd5b61143784611bcc565b151561144257600080fd5b82341015151561145157600080fd5b61146661145f84605e611e07565b6064611e42565b91506114723484611e5d565b90506001548310156114b05761149461148d84600254611e07565b605e611e42565b600960008881526020019081526020016000208190555061151b565b6003548310156114ec576114d06114c984600454611e07565b605e611e42565b600960008881526020019081526020016000208190555061151a565b6115026114fb84600554611e07565b605e611e42565b60096000888152602001908152602001600020819055505b5b611526858588611c05565b7f739b5014c7224bca337ffcf91eae66fcabc0fc4e06350060bfb219b30b511247868686604051808481526020018373ffffffffffffffffffffffffffffffffffffffff1673ffffffffffffffffffffffffffffffffffffffff1681526020018273ffffffffffffffffffffffffffffffffffffffff1673ffffffffffffffffffffffffffffffffffffffff168152602001935050505060405180910390a13073ffffffffffffffffffffffffffffffffffffffff168573ffffffffffffffffffffffffffffffffffffffff16141515611642578473ffffffffffffffffffffffffffffffffffffffff166108fc839081150290604051600060405180830381858888f19350505050158015611640573d6000803e3d6000fd5b505b8373ffffffffffffffffffffffffffffffffffffffff16867e8201e7bcbf010c2c07de59d6e97cb7e3cf67a46125c49cbc89b9d2cde1f48f85600960008b81526020019081526020016000205489600c8c81548110151561169f57fe5b9060005260206000209060020201600001604051808581526020018481526020018373ffffffffffffffffffffffffffffffffffffffff1673ffffffffffffffffffffffffffffffffffffffff168152602001806020018281038252838181546001816001161561010002031660029004815260200191508054600181600116156101000203166002900480156117775780601f1061174c57610100808354040283529160200191611777565b820191906000526020600020905b81548152906001019060200180831161175a57829003601f168201915b50509550505050505060405180910390a33373ffffffffffffffffffffffffffffffffffffffff166108fc829081150290604051600060405180830381858888f193505050501580156117ce573d6000803e3d6000fd5b50505050505050565b60066020528060005260406000206000915054906101000a900473ffffffffffffffffffffffffffffffffffffffff1681565b6040805190810160405280601081526020017f43727970746f536f636372546f6b656e0000000000000000000000000000000081525081565b60006006600083815260200190815260200160002060009054906101000a900473ffffffffffffffffffffffffffffffffffffffff1673ffffffffffffffffffffffffffffffffffffffff168373ffffffffffffffffffffffffffffffffffffffff1614905092915050565b600073ffffffffffffffffffffffffffffffffffffffff168173ffffffffffffffffffffffffffffffffffffffff16141561196957600a60009054906101000a900473ffffffffffffffffffffffffffffffffffffffff1673ffffffffffffffffffffffffffffffffffffffff166108fc3073ffffffffffffffffffffffffffffffffffffffff16319081150290604051600060405180830381858888f19350505050158015611963573d6000803e3d6000fd5b506119c8565b8073ffffffffffffffffffffffffffffffffffffffff166108fc3073ffffffffffffffffffffffffffffffffffffffff16319081150290604051600060405180830381858888f193505050501580156119c6573d6000803e3d6000fd5b505b50565b6119d3611e76565b600060408051908101604052808781526020018481525091506001600c83908060018154018082558091505090600182039060005260206000209060020201600090919290919091506000820151816000019080519060200190611a38929190611e90565b506020820151816001015550500390508063ffffffff1681141515611a5c57600080fd5b7fb3b0cf861f168bcdb275c69da97b2543631552ba562628aa3c7317d4a6089ef281878760405180848152602001806020018373ffffffffffffffffffffffffffffffffffffffff1673ffffffffffffffffffffffffffffffffffffffff168152602001828103825284818151815260200191508051906020019080838360005b83811015611af8578082015181840152602081019050611add565b50505050905090810190601f168015611b255780820380516001836020036101000a031916815260200191505b5094505050505060405180910390a1836009600083815260200190815260200160002081905550611b5860008683611c05565b505050505050565b60008273ffffffffffffffffffffffffffffffffffffffff166008600084815260200190815260200160002060009054906101000a900473ffffffffffffffffffffffffffffffffffffffff1673ffffffffffffffffffffffffffffffffffffffff1614905092915050565b60008073ffffffffffffffffffffffffffffffffffffffff168273ffffffffffffffffffffffffffffffffffffffff1614159050919050565b600760008373ffffffffffffffffffffffffffffffffffffffff1673ffffffffffffffffffffffffffffffffffffffff16815260200190815260200160002060008154809291906001019190505550816006600083815260200190815260200160002060006101000a81548173ffffffffffffffffffffffffffffffffffffffff021916908373ffffffffffffffffffffffffffffffffffffffff160217905550600073ffffffffffffffffffffffffffffffffffffffff168373ffffffffffffffffffffffffffffffffffffffff16141515611d6357600760008473ffffffffffffffffffffffffffffffffffffffff1673ffffffffffffffffffffffffffffffffffffffff16815260200190815260200160002060008154809291906001900391905055506008600082815260200190815260200160002060006101000a81549073ffffffffffffffffffffffffffffffffffffffff02191690555b7fddf252ad1be2c89b69c2b068fc378daa952ba7f163c4a11628f55a4df523b3ef838383604051808473ffffffffffffffffffffffffffffffffffffffff1673ffffffffffffffffffffffffffffffffffffffff1681526020018373ffffffffffffffffffffffffffffffffffffffff1673ffffffffffffffffffffffffffffffffffffffff168152602001828152602001935050505060405180910390a1505050565b6000806000841415611e1c5760009150611e3b565b8284029050828482811515611e2d57fe5b04141515611e3757fe5b8091505b5092915050565b6000808284811515611e5057fe5b0490508091505092915050565b6000828211151515611e6b57fe5b818303905092915050565b604080519081016040528060608152602001600081525090565b828054600181600116156101000203166002900490600052602060002090601f016020900481019282601f10611ed157805160ff1916838001178555611eff565b82800160010185558215611eff579182015b82811115611efe578251825591602001919060010190611ee3565b5b509050611f0c9190611f10565b5090565b611f3291905b80821115611f2e576000816000905550600101611f16565b5090565b905600a165627a7a7230582057c98cf9b6176d86e524df27ed6eb5ee63d666ad8d23a340bfcc40deffd5799b0029",
  "source": "  pragma solidity ^ 0.4 .18; // solhint-disable-line\n\n\n  library SafeMath {\n\n      /**\n       * @dev Multiplies two numbers, throws on overflow.\n       */\n      function mul(uint256 a, uint256 b) internal pure returns(uint256) {\n          if (a == 0) {\n              return 0;\n          }\n          uint256 c = a * b;\n          assert(c / a == b);\n          return c;\n      }\n\n      /**\n       * @dev Integer division of two numbers, truncating the quotient.\n       */\n      function div(uint256 a, uint256 b) internal pure returns(uint256) {\n          // assert(b > 0); // Solidity automatically throws when dividing by 0\n          uint256 c = a / b;\n          // assert(a == b * c + a % b); // There is no case in which this doesn't hold\n          return c;\n      }\n\n      /**\n       * @dev Substracts two numbers, throws on overflow (i.e. if subtrahend is greater than minuend).\n       */\n      function sub(uint256 a, uint256 b) internal pure returns(uint256) {\n          assert(b <= a);\n          return a - b;\n      }\n\n      /**\n       * @dev Adds two numbers, throws on overflow.\n       */\n      function add(uint256 a, uint256 b) internal pure returns(uint256) {\n          uint256 c = a + b;\n          assert(c >= a);\n          return c;\n      }\n  }\n\n  contract ERC721 {\n\n      // Required methods\n      function approve(address _to, uint256 _tokenId) public;\n\n      function balanceOf(address _owner) public view returns(uint256 balance);\n\n      function implementsERC721() public pure returns(bool);\n\n      function ownerOf(uint256 _tokenId) public view returns(address addr);\n\n      function takeOwnership(uint256 _tokenId) public;\n\n      function totalSupply() public view returns(uint256 total);\n\n      function transferFrom(address _from, address _to, uint256 _tokenId) public;\n\n      function transfer(address _to, uint256 _tokenId) public;\n\n      event Transfer(address indexed from, address indexed to, uint256 tokenId);\n      event Approval(address indexed owner, address indexed approved, uint256 tokenId);\n\n      // Optional\n      // function name() public view returns (string name);\n      // function symbol() public view returns (string symbol);\n      // function tokenOfOwnerByIndex(address _owner, uint256 _index) external view returns (uint256 tokenId);\n      // function tokenMetadata(uint256 _tokenId) public view returns (string infoUrl);\n  }\n\n\n  contract CryptoSoccrToken is ERC721 {\n\n      /*** EVENTS ***/\n\n      /// @dev The Birth event is fired whenever a new player comes into existence.\n      event Birth(uint256 tokenId, string name, address owner);\n      event Snatch(uint256 tokenId, address oldOwner, address newOwner);\n\n      /// @dev The TokenSold event is fired whenever a token is sold.\n      event TokenSold(\n          uint256 indexed tokenId,\n          uint256 oldPrice,\n          uint256 newPrice,\n          address prevOwner,\n          address indexed winner,\n          string name\n      );\n\n      /// @dev Transfer event as defined in current draft of ERC721.\n      /// ownership is assigned, including births.\n      event Transfer(address from, address to, uint256 tokenId);\n\n      /*** CONSTANTS ***/\n\n      /// @notice Name and symbol of the non fungible token, as defined in ERC721.\n      string public constant NAME = \"CryptoSoccr\";\n      string public constant SYMBOL = \"CryptoSoccrToken\";\n\n      uint256 private startingPrice = 0.001 ether;\n      uint256 private constant PROMO_CREATION_LIMIT = 5000;\n      uint256 private firstStepLimit = 0.053613 ether;\n      uint256 private firstStepMultiplier = 200;\n      uint256 private secondStepLimit = 0.564957 ether;\n      uint256 private secondStepMultiplier = 150;\n      uint256 private thirdStepMultiplier = 120;\n\n      /*** STORAGE ***/\n\n      /// @dev A mapping from player IDs to the address that owns them. All players have\n      /// some valid owner address.\n      mapping(uint256 => address) public playerIndexToOwner;\n\n      // @dev A mapping from owner address to count of tokens that address owns.\n      // Used internally inside balanceOf() to resolve ownership count.\n      mapping(address => uint256) private ownershipTokenCount;\n\n      /// @dev A mapping from PlayerIDs to an address that has been approved to call\n      /// transferFrom(). Each Player can only have one approved address for transfer\n      /// at any time. A zero value means no approval is outstanding.\n      mapping(uint256 => address) public playerIndexToApproved;\n\n      // @dev A mapping from PlayerIDs to the price of the token.\n      mapping(uint256 => uint256) private playerIndexToPrice;\n\n      // The addresses of the accounts (or contracts) that can execute actions within each roles.\n      address public ceoAddress;\n\n      uint256 public promoCreatedCount;\n\n      /*** DATATYPES ***/\n      struct Player {\n          string name;\n          uint256 internalPlayerId;\n      }\n\n      Player[] private players;\n\n      /*** ACCESS MODIFIERS ***/\n      /// @dev Access modifier for CEO-only functionality\n      modifier onlyCEO() {\n          require(msg.sender == ceoAddress);\n          _;\n      }\n\n      /// Access modifier for contract owner only functionality\n      modifier onlyCLevel() {\n          require(msg.sender == ceoAddress);\n          _;\n      }\n\n      /*** CONSTRUCTOR ***/\n      function CryptoSoccrToken() public {\n          ceoAddress = msg.sender;\n      }\n\n      /*** PUBLIC FUNCTIONS ***/\n      /// @notice Grant another address the right to transfer token via takeOwnership() and transferFrom().\n      /// @param _to The address to be granted transfer approval. Pass address(0) to\n      /// clear all approvals.\n      /// @param _tokenId The ID of the Token that can be transferred if this call succeeds.\n      /// @dev Required for ERC-721 compliance.\n      function approve(\n          address _to,\n          uint256 _tokenId\n      ) public {\n          // Caller must own token.\n          require(_owns(msg.sender, _tokenId));\n\n          playerIndexToApproved[_tokenId] = _to;\n\n          Approval(msg.sender, _to, _tokenId);\n      }\n\n      /// For querying balance of a particular account\n      /// @param _owner The address for balance query\n      /// @dev Required for ERC-721 compliance.\n      function balanceOf(address _owner) public view returns(uint256 balance) {\n          return ownershipTokenCount[_owner];\n      }\n\n      /// @dev Creates a new promo Player with the given name, with given _price and assignes it to an address.\n      function createPromoPlayer(address _owner, string _name, uint256 _price, uint256 _internalPlayerId) public onlyCEO {\n          require(promoCreatedCount < PROMO_CREATION_LIMIT);\n\n          address playerOwner = _owner;\n          if (playerOwner == address(0)) {\n              playerOwner = ceoAddress;\n          }\n\n          if (_price <= 0) {\n              _price = startingPrice;\n          }\n\n          promoCreatedCount++;\n          _createPlayer(_name, playerOwner, _price, _internalPlayerId);\n      }\n\n      /// @dev Creates a new Player with the given name.\n      function createContractPlayer(string _name, uint256 _internalPlayerId) public onlyCEO {\n          _createPlayer(_name, address(this), startingPrice, _internalPlayerId);\n      }\n\n      /// @notice Returns all the relevant information about a specific player.\n      /// @param _tokenId The tokenId of the player of interest.\n      function getPlayer(uint256 _tokenId) public view returns(\n          string playerName,\n          uint256 internalPlayerId,\n          uint256 sellingPrice,\n          address owner\n      ) {\n          Player storage player = players[_tokenId];\n          playerName = player.name;\n          internalPlayerId = player.internalPlayerId;\n          sellingPrice = playerIndexToPrice[_tokenId];\n          owner = playerIndexToOwner[_tokenId];\n      }\n\n      function implementsERC721() public pure returns(bool) {\n          return true;\n      }\n\n      /// @dev Required for ERC-721 compliance.\n      function name() public pure returns(string) {\n          return NAME;\n      }\n\n      /// For querying owner of token\n      /// @param _tokenId The tokenID for owner inquiry\n      /// @dev Required for ERC-721 compliance.\n      function ownerOf(uint256 _tokenId)\n      public\n      view\n      returns(address owner) {\n          owner = playerIndexToOwner[_tokenId];\n          require(owner != address(0));\n      }\n\n      function payout(address _to) public onlyCLevel {\n          _payout(_to);\n      }\n\n      // Allows someone to send ether and obtain the token\n      function purchase(uint256 _tokenId) public payable {\n          address oldOwner = playerIndexToOwner[_tokenId];\n          address newOwner = msg.sender;\n\n          uint256 sellingPrice = playerIndexToPrice[_tokenId];\n\n          // Making sure token owner is not sending to self\n          require(oldOwner != newOwner);\n\n          // Safety check to prevent against an unexpected 0x0 default.\n          require(_addressNotNull(newOwner));\n\n          // Making sure sent amount is greater than or equal to the sellingPrice\n          require(msg.value >= sellingPrice);\n\n          uint256 payment = uint256(SafeMath.div(SafeMath.mul(sellingPrice, 94), 100));\n          uint256 purchaseExcess = SafeMath.sub(msg.value, sellingPrice);\n\n          // Update prices\n          if (sellingPrice < firstStepLimit) {\n              // first stage\n              playerIndexToPrice[_tokenId] = SafeMath.div(SafeMath.mul(sellingPrice, firstStepMultiplier), 94);\n          } else if (sellingPrice < secondStepLimit) {\n              // second stage\n              playerIndexToPrice[_tokenId] = SafeMath.div(SafeMath.mul(sellingPrice, secondStepMultiplier), 94);\n          } else {\n              // third stage\n              playerIndexToPrice[_tokenId] = SafeMath.div(SafeMath.mul(sellingPrice, thirdStepMultiplier), 94);\n          }\n\n          _transfer(oldOwner, newOwner, _tokenId);\n          Snatch(_tokenId, oldOwner, newOwner);\n\n          // Pay previous tokenOwner if owner is not contract\n          if (oldOwner != address(this)) {\n              oldOwner.transfer(payment); //(1-0.06)\n          }\n\n          TokenSold(_tokenId, sellingPrice, playerIndexToPrice[_tokenId], oldOwner, newOwner, players[_tokenId].name);\n\n          msg.sender.transfer(purchaseExcess);\n      }\n\n      function priceOf(uint256 _tokenId) public view returns(uint256 price) {\n          return playerIndexToPrice[_tokenId];\n      }\n\n      /// @dev Assigns a new address to act as the CEO. Only available to the current CEO.\n      /// @param _newCEO The address of the new CEO\n      function setCEO(address _newCEO) public onlyCEO {\n          require(_newCEO != address(0));\n\n          ceoAddress = _newCEO;\n      }\n\n      /// @dev Required for ERC-721 compliance.\n      function symbol() public pure returns(string) {\n          return SYMBOL;\n      }\n\n      /// @notice Allow pre-approved user to take ownership of a token\n      /// @param _tokenId The ID of the Token that can be transferred if this call succeeds.\n      /// @dev Required for ERC-721 compliance.\n      function takeOwnership(uint256 _tokenId) public {\n          address newOwner = msg.sender;\n          address oldOwner = playerIndexToOwner[_tokenId];\n\n          // Safety check to prevent against an unexpected 0x0 default.\n          require(_addressNotNull(newOwner));\n\n          // Making sure transfer is approved\n          require(_approved(newOwner, _tokenId));\n\n          _transfer(oldOwner, newOwner, _tokenId);\n      }\n\n      /// @param _owner The owner whose soccer player tokens we are interested in.\n      /// @dev This method MUST NEVER be called by smart contract code. First, it's fairly\n      /// expensive (it walks the entire Players array looking for players belonging to owner),\n      /// but it also returns a dynamic array, which is only supported for web3 calls, and\n      /// not contract-to-contract calls.\n      function tokensOfOwner(address _owner) public view returns(uint256[] ownerTokens) {\n          uint256 tokenCount = balanceOf(_owner);\n          if (tokenCount == 0) {\n              // Return an empty array\n              return new uint256[](0);\n          } else {\n              uint256[] memory result = new uint256[](tokenCount);\n              uint256 totalPlayers = totalSupply();\n              uint256 resultIndex = 0;\n\n              uint256 playerId;\n              for (playerId = 0; playerId <= totalPlayers; playerId++) {\n                  if (playerIndexToOwner[playerId] == _owner) {\n                      result[resultIndex] = playerId;\n                      resultIndex++;\n                  }\n              }\n              return result;\n          }\n      }\n\n      /// For querying totalSupply of token\n      /// @dev Required for ERC-721 compliance.\n      function totalSupply() public view returns(uint256 total) {\n          return players.length;\n      }\n\n      /// Owner initates the transfer of the token to another account\n      /// @param _to The address for the token to be transferred to.\n      /// @param _tokenId The ID of the Token that can be transferred if this call succeeds.\n      /// @dev Required for ERC-721 compliance.\n      function transfer(\n          address _to,\n          uint256 _tokenId\n      ) public {\n          require(_owns(msg.sender, _tokenId));\n          require(_addressNotNull(_to));\n\n          _transfer(msg.sender, _to, _tokenId);\n      }\n\n      /// Third-party initiates transfer of token from address _from to address _to\n      /// @param _from The address for the token to be transferred from.\n      /// @param _to The address for the token to be transferred to.\n      /// @param _tokenId The ID of the Token that can be transferred if this call succeeds.\n      /// @dev Required for ERC-721 compliance.\n      function transferFrom(\n          address _from,\n          address _to,\n          uint256 _tokenId\n      ) public {\n          require(_owns(_from, _tokenId));\n          require(_approved(_to, _tokenId));\n          require(_addressNotNull(_to));\n\n          _transfer(_from, _to, _tokenId);\n      }\n\n      /*** PRIVATE FUNCTIONS ***/\n      /// Safety check on _to address to prevent against an unexpected 0x0 default.\n      function _addressNotNull(address _to) private pure returns(bool) {\n          return _to != address(0);\n      }\n\n      /// For checking approval of transfer for address _to\n      function _approved(address _to, uint256 _tokenId) private view returns(bool) {\n          return playerIndexToApproved[_tokenId] == _to;\n      }\n\n      /// For creating Player\n      function _createPlayer(string _name, address _owner, uint256 _price, uint256 _internalPlayerId) private {\n          Player memory _player = Player({\n              name: _name,\n              internalPlayerId: _internalPlayerId\n          });\n          uint256 newPlayerId = players.push(_player) - 1;\n\n          // It's probably never going to happen, 4 billion tokens are A LOT, but\n          // let's just be 100% sure we never let this happen.\n          require(newPlayerId == uint256(uint32(newPlayerId)));\n\n          Birth(newPlayerId, _name, _owner);\n\n          playerIndexToPrice[newPlayerId] = _price;\n\n          // This will assign ownership, and also emit the Transfer event as\n          // per ERC721 draft\n          _transfer(address(0), _owner, newPlayerId);\n      }\n\n      /// Check for token ownership\n      function _owns(address claimant, uint256 _tokenId) private view returns(bool) {\n          return claimant == playerIndexToOwner[_tokenId];\n      }\n\n      /// For paying out balance on contract\n      function _payout(address _to) private {\n          if (_to == address(0)) {\n              ceoAddress.transfer(this.balance);\n          } else {\n              _to.transfer(this.balance);\n          }\n      }\n\n      /// @dev Assigns ownership of a specific Player to an address.\n      function _transfer(address _from, address _to, uint256 _tokenId) private {\n          // Since the number of players is capped to 2^32 we can't overflow this\n          ownershipTokenCount[_to]++;\n          //transfer ownership\n          playerIndexToOwner[_tokenId] = _to;\n\n          // When creating new players _from is 0x0, but we can't account that address.\n          if (_from != address(0)) {\n              ownershipTokenCount[_from]--;\n              // clear any previously approved ownership exchange\n              delete playerIndexToApproved[_tokenId];\n          }\n\n          // Emit the transfer event.\n          Transfer(_from, _to, _tokenId);\n      }\n  }",
  "sourcePath": "/Users/imac3/Desktop/Cryptodoggy_day1/contracts/CryptoSoccr.sol",
  "compiler": {
    "name": "solc",
    "version": "0.4.24+commit.e67f0147.Emscripten.clang"
  },
  "schemaVersion": "2.0.0",
  "updatedAt": "2018-06-29T10:26:35.906Z"
}