{
  "contractName": "AccessControl",
  "abi": [
    {
      "constant": true,
      "inputs": [],
      "name": "ceoAddress",
      "outputs": [
        {
          "name": "",
          "type": "address"
        }
      ],
      "payable": false,
      "stateMutability": "view",
      "type": "function"
    },
    {
      "constant": true,
      "inputs": [],
      "name": "paused",
      "outputs": [
        {
          "name": "",
          "type": "bool"
        }
      ],
      "payable": false,
      "stateMutability": "view",
      "type": "function"
    },
    {
      "constant": true,
      "inputs": [],
      "name": "cooAddress",
      "outputs": [
        {
          "name": "",
          "type": "address"
        }
      ],
      "payable": false,
      "stateMutability": "view",
      "type": "function"
    },
    {
      "inputs": [],
      "payable": false,
      "stateMutability": "nonpayable",
      "type": "constructor"
    },
    {
      "constant": false,
      "inputs": [
        {
          "name": "_newCEO",
          "type": "address"
        }
      ],
      "name": "setCEO",
      "outputs": [],
      "payable": false,
      "stateMutability": "nonpayable",
      "type": "function"
    },
    {
      "constant": false,
      "inputs": [
        {
          "name": "_newCOO",
          "type": "address"
        }
      ],
      "name": "setCOO",
      "outputs": [],
      "payable": false,
      "stateMutability": "nonpayable",
      "type": "function"
    },
    {
      "constant": false,
      "inputs": [],
      "name": "pause",
      "outputs": [],
      "payable": false,
      "stateMutability": "nonpayable",
      "type": "function"
    },
    {
      "constant": false,
      "inputs": [],
      "name": "unpause",
      "outputs": [],
      "payable": false,
      "stateMutability": "nonpayable",
      "type": "function"
    }
  ],
  "bytecode": "0x60806040526000600160146101000a81548160ff02191690831515021790555034801561002b57600080fd5b50336000806101000a81548173ffffffffffffffffffffffffffffffffffffffff021916908373ffffffffffffffffffffffffffffffffffffffff16021790555033600160006101000a81548173ffffffffffffffffffffffffffffffffffffffff021916908373ffffffffffffffffffffffffffffffffffffffff16021790555061057e806100bc6000396000f300608060405260043610610083576000357c0100000000000000000000000000000000000000000000000000000000900463ffffffff1680630a0f81681461008857806327d7874c146100df5780632ba73c15146101225780633f4ba83a146101655780635c975abb1461017c5780638456cb59146101ab578063b047fb50146101c2575b600080fd5b34801561009457600080fd5b5061009d610219565b604051808273ffffffffffffffffffffffffffffffffffffffff1673ffffffffffffffffffffffffffffffffffffffff16815260200191505060405180910390f35b3480156100eb57600080fd5b50610120600480360381019080803573ffffffffffffffffffffffffffffffffffffffff16906020019092919050505061023e565b005b34801561012e57600080fd5b50610163600480360381019080803573ffffffffffffffffffffffffffffffffffffffff169060200190929190505050610318565b005b34801561017157600080fd5b5061017a6103f3565b005b34801561018857600080fd5b50610191610486565b604051808215151515815260200191505060405180910390f35b3480156101b757600080fd5b506101c0610499565b005b3480156101ce57600080fd5b506101d761052c565b604051808273ffffffffffffffffffffffffffffffffffffffff1673ffffffffffffffffffffffffffffffffffffffff16815260200191505060405180910390f35b6000809054906101000a900473ffffffffffffffffffffffffffffffffffffffff1681565b6000809054906101000a900473ffffffffffffffffffffffffffffffffffffffff1673ffffffffffffffffffffffffffffffffffffffff163373ffffffffffffffffffffffffffffffffffffffff1614151561029957600080fd5b600073ffffffffffffffffffffffffffffffffffffffff168173ffffffffffffffffffffffffffffffffffffffff16141515156102d557600080fd5b806000806101000a81548173ffffffffffffffffffffffffffffffffffffffff021916908373ffffffffffffffffffffffffffffffffffffffff16021790555050565b6000809054906101000a900473ffffffffffffffffffffffffffffffffffffffff1673ffffffffffffffffffffffffffffffffffffffff163373ffffffffffffffffffffffffffffffffffffffff1614151561037357600080fd5b600073ffffffffffffffffffffffffffffffffffffffff168173ffffffffffffffffffffffffffffffffffffffff16141515156103af57600080fd5b80600160006101000a81548173ffffffffffffffffffffffffffffffffffffffff021916908373ffffffffffffffffffffffffffffffffffffffff16021790555050565b6000809054906101000a900473ffffffffffffffffffffffffffffffffffffffff1673ffffffffffffffffffffffffffffffffffffffff163373ffffffffffffffffffffffffffffffffffffffff1614151561044e57600080fd5b600160149054906101000a900460ff16151561046957600080fd5b6000600160146101000a81548160ff021916908315150217905550565b600160149054906101000a900460ff1681565b6000809054906101000a900473ffffffffffffffffffffffffffffffffffffffff1673ffffffffffffffffffffffffffffffffffffffff163373ffffffffffffffffffffffffffffffffffffffff161415156104f457600080fd5b600160149054906101000a900460ff1615151561051057600080fd5b60018060146101000a81548160ff021916908315150217905550565b600160009054906101000a900473ffffffffffffffffffffffffffffffffffffffff16815600a165627a7a72305820a1c0cf9f2b54494b94d2fc288d9e747e0b22be9508fae2b5f854b16b4cddb20a0029",
  "source": "pragma solidity ^0.4.18;\n\n\n// inspired by\n// https://github.com/axiomzen/cryptokitties-bounty/blob/master/contracts/KittyAccessControl.sol\ncontract AccessControl {\n    /// @dev The addresses of the accounts (or contracts) that can execute actions within each roles\n    address public ceoAddress;\n    address public cooAddress;\n\n    /// @dev Keeps track whether the contract is paused. When that is true, most actions are blocked\n    bool public paused = false;\n\n    /// @dev The AccessControl constructor sets the original C roles of the contract to the sender account\n    function AccessControl() public {\n        ceoAddress = msg.sender;\n        cooAddress = msg.sender;\n    }\n\n    /// @dev Access modifier for CEO-only functionality\n    modifier onlyCEO() {\n        require(msg.sender == ceoAddress);\n        _;\n    }\n\n    /// @dev Access modifier for COO-only functionality\n    modifier onlyCOO() {\n        require(msg.sender == cooAddress);\n        _;\n    }\n\n    /// @dev Access modifier for any CLevel functionality\n    modifier onlyCLevel() {\n        require(msg.sender == ceoAddress || msg.sender == cooAddress);\n        _;\n    }\n\n    /// @dev Assigns a new address to act as the CEO. Only available to the current CEO\n    /// @param _newCEO The address of the new CEO\n    function setCEO(address _newCEO) public onlyCEO {\n        require(_newCEO != address(0));\n        ceoAddress = _newCEO;\n    }\n\n    /// @dev Assigns a new address to act as the COO. Only available to the current CEO\n    /// @param _newCOO The address of the new COO\n    function setCOO(address _newCOO) public onlyCEO {\n        require(_newCOO != address(0));\n        cooAddress = _newCOO;\n    }\n\n    /// @dev Modifier to allow actions only when the contract IS NOT paused\n    modifier whenNotPaused() {\n        require(!paused);\n        _;\n    }\n\n    /// @dev Modifier to allow actions only when the contract IS paused\n    modifier whenPaused {\n        require(paused);\n        _;\n    }\n\n    /// @dev Pause the smart contract. Only can be called by the CEO\n    function pause() public onlyCEO whenNotPaused {\n        paused = true;\n    }\n\n    /// @dev Unpauses the smart contract. Only can be called by the CEO\n    function unpause() public onlyCEO whenPaused {\n        paused = false;\n    }\n}\n\n\n/**\n * Interface for required functionality in the ERC721 standard\n * for non-fungible tokens.\n *\n * Author: Nadav Hollander (nadav at dharma.io)\n * https://github.com/dharmaprotocol/NonFungibleToken/blob/master/contracts/ERC721.sol\n */\ncontract ERC721 {\n    // Events\n    event Transfer(address indexed _from, address indexed _to, uint256 _tokenId);\n    event Approval(address indexed _owner, address indexed _approved, uint256 _tokenId);\n\n    /// For querying totalSupply of token.\n    function totalSupply() public view returns (uint256 _totalSupply);\n\n    /// For querying balance of a particular account.\n    /// @param _owner The address for balance query.\n    /// @dev Required for ERC-721 compliance.\n    function balanceOf(address _owner) public view returns (uint256 _balance);\n\n    /// For querying owner of token.\n    /// @param _tokenId The tokenID for owner inquiry.\n    /// @dev Required for ERC-721 compliance.\n    function ownerOf(uint256 _tokenId) public view returns (address _owner);\n\n    /// @notice Grant another address the right to transfer token via takeOwnership() and transferFrom()\n    /// @param _to The address to be granted transfer approval. Pass address(0) to\n    ///  clear all approvals.\n    /// @param _tokenId The ID of the Token that can be transferred if this call succeeds.\n    /// @dev Required for ERC-721 compliance.\n    function approve(address _to, uint256 _tokenId) public;\n\n    // NOT IMPLEMENTED\n    // function getApproved(uint256 _tokenId) public view returns (address _approved);\n\n    /// Third-party initiates transfer of token from address _from to address _to.\n    /// @param _from The address for the token to be transferred from.\n    /// @param _to The address for the token to be transferred to.\n    /// @param _tokenId The ID of the Token that can be transferred if this call succeeds.\n    /// @dev Required for ERC-721 compliance.\n    function transferFrom(address _from, address _to, uint256 _tokenId) public;\n\n    /// Owner initates the transfer of the token to another account.\n    /// @param _to The address of the recipient, can be a user or contract.\n    /// @param _tokenId The ID of the token to transfer.\n    /// @dev Required for ERC-721 compliance.\n    function transfer(address _to, uint256 _tokenId) public;\n\n    ///\n    function implementsERC721() public view returns (bool _implementsERC721);\n\n    // EXTRA\n    /// @notice Allow pre-approved user to take ownership of a token.\n    /// @param _tokenId The ID of the token that can be transferred if this call succeeds.\n    /// @dev Required for ERC-721 compliance.\n    function takeOwnership(uint256 _tokenId) public;\n}\n\n\ncontract DetailedERC721 is ERC721 {\n    function name() public view returns (string _name);\n    function symbol() public view returns (string _symbol);\n}\n\n\ncontract CryptoSoccer is AccessControl, DetailedERC721 {\n    using SafeMath for uint256;\n\n    event TokenCreated(uint256 tokenId, string name, string country, bytes5 dna, uint256 price, address owner);\n    event TokenSold(\n        uint256 indexed tokenId,\n        string name,\n        string country,\n        bytes5 dna,\n        uint256 sellingPrice,\n        uint256 newPrice,\n        address indexed oldOwner,\n        address indexed newOwner\n        );\n\n    mapping (uint256 => address) private tokenIdToOwner;\n    mapping (uint256 => uint256) private tokenIdToPrice;\n    mapping (address => uint256) private ownershipTokenCount;\n    mapping (uint256 => address) private tokenIdToApproved;\n\n    struct Soccer {\n        string name;\n        string country;\n        bytes5 dna;\n    }\n\n    Soccer[] private soccers;\n\n    uint256 private startingPrice = 0.01 ether;\n    bool private erc721Enabled = false;\n\n    modifier onlyERC721() {\n        require(erc721Enabled);\n        _;\n    }\n\n    function createToken(string _name,  string _country, address _owner, uint256 _price) public onlyCLevel {\n        require(_owner != address(0));\n        require(_price >= startingPrice);\n\n        bytes5 _dna = _generateRandomDna();\n        _createToken(_name, _country,_dna, _owner, _price);\n    }\n\n    function createToken(string _name, string _country) public onlyCLevel {\n        bytes5 _dna = _generateRandomDna();\n        _createToken(_name,_country, _dna, address(this), startingPrice);\n    }\n\n    function _generateRandomDna() private view returns (bytes5) {\n        uint256 lastBlockNumber = block.number - 1;\n        bytes32 hashVal = bytes32(block.blockhash(lastBlockNumber));\n        bytes5 dna = bytes5((hashVal & 0xffffffff) << 216);\n        return dna;\n    }\n\n    function _createToken(string _name,string _country,  bytes5 _dna, address _owner, uint256 _price) private {\n        Soccer memory _soccer = Soccer({\n            name: _name,\n            country:_country,\n            dna: _dna\n        });\n        uint256 newTokenId = soccers.push(_soccer) - 1;\n        tokenIdToPrice[newTokenId] = _price;\n\n        emit TokenCreated(newTokenId, _name, _country, _dna, _price, _owner);\n\n        _transfer(address(0), _owner, newTokenId);\n    }\n\n    function getToken(uint256 _tokenId) public view returns (\n        string _tokenName,\n        bytes5 _dna,\n        uint256 _price,\n        uint256 _nextPrice,\n        address _owner\n    ) {\n        _tokenName = soccers[_tokenId].name;\n        _dna = soccers[_tokenId].dna;\n        _price = tokenIdToPrice[_tokenId];\n        _nextPrice = nextPriceOf(_tokenId);\n        _owner = tokenIdToOwner[_tokenId];\n    }\n\n    function getAllTokens() public view returns (\n        uint256[],\n        uint256[],\n        address[]\n    ) {\n        uint256 total = totalSupply();\n        uint256[] memory prices = new uint256[](total);\n        uint256[] memory nextPrices = new uint256[](total);\n        address[] memory owners = new address[](total);\n\n        for (uint256 i = 0; i < total; i++) {\n            prices[i] = tokenIdToPrice[i];\n            nextPrices[i] = nextPriceOf(i);\n            owners[i] = tokenIdToOwner[i];\n        }\n\n        return (prices, nextPrices, owners);\n    }\n\n    function tokensOf(address _owner) public view returns(uint256[]) {\n        uint256 tokenCount = balanceOf(_owner);\n        if (tokenCount == 0) {\n            return new uint256[](0);\n        } else {\n            uint256[] memory result = new uint256[](tokenCount);\n            uint256 total = totalSupply();\n            uint256 resultIndex = 0;\n\n            for (uint256 i = 0; i < total; i++) {\n                if (tokenIdToOwner[i] == _owner) {\n                    result[resultIndex] = i;\n                    resultIndex++;\n                }\n            }\n            return result;\n        }\n    }\n\n    function withdrawBalance(address _to, uint256 _amount) public onlyCEO {\n        require(_amount <= this.balance);\n\n        if (_amount == 0) {\n            _amount = this.balance;\n        }\n\n        if (_to == address(0)) {\n            ceoAddress.transfer(_amount);\n        } else {\n            _to.transfer(_amount);\n        }\n    }\n\n    function purchase(uint256 _tokenId) public payable whenNotPaused {\n        address oldOwner = ownerOf(_tokenId);\n        address newOwner = msg.sender;\n        uint256 sellingPrice = priceOf(_tokenId);\n\n        require(oldOwner != address(0));\n        require(newOwner != address(0));\n        require(oldOwner != newOwner);\n        require(!_isContract(newOwner));\n        require(sellingPrice > 0);\n        require(msg.value >= sellingPrice);\n\n        _transfer(oldOwner, newOwner, _tokenId);\n        tokenIdToPrice[_tokenId] = nextPriceOf(_tokenId);\n        TokenSold(\n            _tokenId,\n            soccers[_tokenId].name,\n            soccers[_tokenId].country,\n            soccers[_tokenId].dna,\n            sellingPrice,\n            priceOf(_tokenId),\n            oldOwner,\n            newOwner\n        );\n\n        uint256 excess = msg.value.sub(sellingPrice);\n        uint256 contractCut = sellingPrice.mul(6).div(100); // 6% cut\n\n        if (oldOwner != address(this)) {\n            oldOwner.transfer(sellingPrice.sub(contractCut));\n        }\n\n        if (excess > 0) {\n            newOwner.transfer(excess);\n        }\n    }\n\n    function priceOf(uint256 _tokenId) public view returns (uint256 _price) {\n        return tokenIdToPrice[_tokenId];\n    }\n\n    uint256 private increaseLimit1 = 0.02 ether;\n    uint256 private increaseLimit2 = 0.5 ether;\n    uint256 private increaseLimit3 = 2.0 ether;\n    uint256 private increaseLimit4 = 5.0 ether;\n\n    function nextPriceOf(uint256 _tokenId) public view returns (uint256 _nextPrice) {\n        uint256 _price = priceOf(_tokenId);\n        if (_price < increaseLimit1) {\n            return _price.mul(200).div(95);\n        } else if (_price < increaseLimit2) {\n            return _price.mul(135).div(96);\n        } else if (_price < increaseLimit3) {\n            return _price.mul(125).div(97);\n        } else if (_price < increaseLimit4) {\n            return _price.mul(117).div(97);\n        } else {\n            return _price.mul(115).div(98);\n        }\n    }\n\n    function enableERC721() public onlyCEO {\n        erc721Enabled = true;\n    }\n\n    function totalSupply() public view returns (uint256 _totalSupply) {\n        _totalSupply = soccers.length;\n    }\n\n    function balanceOf(address _owner) public view returns (uint256 _balance) {\n        _balance = ownershipTokenCount[_owner];\n    }\n\n    function ownerOf(uint256 _tokenId) public view returns (address _owner) {\n        _owner = tokenIdToOwner[_tokenId];\n    }\n\n    function approve(address _to, uint256 _tokenId) public whenNotPaused onlyERC721 {\n        require(_owns(msg.sender, _tokenId));\n        tokenIdToApproved[_tokenId] = _to;\n        emit Approval(msg.sender, _to, _tokenId);\n    }\n\n    function transferFrom(address _from, address _to, uint256 _tokenId) public whenNotPaused onlyERC721 {\n        require(_to != address(0));\n        require(_owns(_from, _tokenId));\n        require(_approved(msg.sender, _tokenId));\n\n        _transfer(_from, _to, _tokenId);\n    }\n\n    function transfer(address _to, uint256 _tokenId) public whenNotPaused onlyERC721 {\n        require(_to != address(0));\n        require(_owns(msg.sender, _tokenId));\n\n        _transfer(msg.sender, _to, _tokenId);\n    }\n\n    function implementsERC721() public view whenNotPaused returns (bool) {\n        return erc721Enabled;\n    }\n\n    function takeOwnership(uint256 _tokenId) public whenNotPaused onlyERC721 {\n        require(_approved(msg.sender, _tokenId));\n        _transfer(tokenIdToOwner[_tokenId], msg.sender, _tokenId);\n    }\n\n    function name() public view returns (string _name) {\n        _name = \"Cryptosoccers\";\n    }\n\n    function symbol() public view returns (string _symbol) {\n        _symbol = \"CDT\";\n    }\n\n    function _owns(address _claimant, uint256 _tokenId) private view returns (bool) {\n        return tokenIdToOwner[_tokenId] == _claimant;\n    }\n\n    function _approved(address _to, uint256 _tokenId) private view returns (bool) {\n        return tokenIdToApproved[_tokenId] == _to;\n    }\n\n    function _transfer(address _from, address _to, uint256 _tokenId) private {\n        ownershipTokenCount[_to]++;\n        tokenIdToOwner[_tokenId] = _to;\n\n        if (_from != address(0)) {\n            ownershipTokenCount[_from]--;\n            delete tokenIdToApproved[_tokenId];\n        }\n\n       emit Transfer(_from, _to, _tokenId);\n    }\n\n    function _isContract(address addr) private view returns (bool) {\n        uint256 size;\n        assembly { size := extcodesize(addr) }\n        return size > 0;\n    }\n}\n\n\nlibrary SafeMath {\n\n    /**\n    * @dev Multiplies two numbers, throws on overflow.\n    */\n    function mul(uint256 a, uint256 b) internal pure returns (uint256) {\n        if (a == 0) {\n            return 0;\n        }\n        uint256 c = a * b;\n        assert(c / a == b);\n        return c;\n    }\n\n    /**\n    * @dev Integer division of two numbers, truncating the quotient.\n    */\n    function div(uint256 a, uint256 b) internal pure returns (uint256) {\n        // assert(b > 0); // Solidity automatically throws when dividing by 0\n        uint256 c = a / b;\n        // assert(a == b * c + a % b); // There is no case in which this doesn't hold\n        return c;\n    }\n\n    /**\n    * @dev Substracts two numbers, throws on overflow (i.e. if subtrahend is greater than minuend).\n    */\n    function sub(uint256 a, uint256 b) internal pure returns (uint256) {\n        assert(b <= a);\n        return a - b;\n    }\n\n    /**\n    * @dev Adds two numbers, throws on overflow.\n    */\n    function add(uint256 a, uint256 b) internal pure returns (uint256) {\n        uint256 c = a + b;\n        assert(c >= a);\n        return c;\n    }\n}\n",
  "sourcePath": "/Users/imac3/Desktop/Cryptodoggy_day1/contracts/CryptoSoccer.sol",
  "compiler": {
    "name": "solc",
    "version": "0.4.24+commit.e67f0147.Emscripten.clang"
  },
  "schemaVersion": "2.0.0",
  "updatedAt": "2018-06-29T10:11:59.362Z"
}